{
  "address": "0xde37A65C454EB4b0FA0622e47b4B75fc23525b19",
  "abi": [
    {
      "inputs": [
        {
          "internalType": "contract BeethovenxToken",
          "name": "_beets",
          "type": "address"
        },
        {
          "internalType": "address",
          "name": "_treasuryAddress",
          "type": "address"
        },
        {
          "internalType": "uint256",
          "name": "_beetsPerBlock",
          "type": "uint256"
        },
        {
          "internalType": "uint256",
          "name": "_startBlock",
          "type": "uint256"
        }
      ],
      "stateMutability": "nonpayable",
      "type": "constructor"
    },
    {
      "anonymous": false,
      "inputs": [
        {
          "indexed": true,
          "internalType": "address",
          "name": "user",
          "type": "address"
        },
        {
          "indexed": true,
          "internalType": "uint256",
          "name": "pid",
          "type": "uint256"
        },
        {
          "indexed": false,
          "internalType": "uint256",
          "name": "amount",
          "type": "uint256"
        },
        {
          "indexed": true,
          "internalType": "address",
          "name": "to",
          "type": "address"
        }
      ],
      "name": "Deposit",
      "type": "event"
    },
    {
      "anonymous": false,
      "inputs": [
        {
          "indexed": true,
          "internalType": "address",
          "name": "user",
          "type": "address"
        },
        {
          "indexed": true,
          "internalType": "uint256",
          "name": "pid",
          "type": "uint256"
        },
        {
          "indexed": false,
          "internalType": "uint256",
          "name": "amount",
          "type": "uint256"
        },
        {
          "indexed": true,
          "internalType": "address",
          "name": "to",
          "type": "address"
        }
      ],
      "name": "EmergencyWithdraw",
      "type": "event"
    },
    {
      "anonymous": false,
      "inputs": [
        {
          "indexed": true,
          "internalType": "address",
          "name": "user",
          "type": "address"
        },
        {
          "indexed": true,
          "internalType": "uint256",
          "name": "pid",
          "type": "uint256"
        },
        {
          "indexed": false,
          "internalType": "uint256",
          "name": "amount",
          "type": "uint256"
        }
      ],
      "name": "Harvest",
      "type": "event"
    },
    {
      "anonymous": false,
      "inputs": [
        {
          "indexed": true,
          "internalType": "uint256",
          "name": "pid",
          "type": "uint256"
        },
        {
          "indexed": false,
          "internalType": "uint256",
          "name": "allocPoint",
          "type": "uint256"
        },
        {
          "indexed": true,
          "internalType": "contract IERC20",
          "name": "lpToken",
          "type": "address"
        },
        {
          "indexed": true,
          "internalType": "contract IRewarder",
          "name": "rewarder",
          "type": "address"
        }
      ],
      "name": "LogPoolAddition",
      "type": "event"
    },
    {
      "anonymous": false,
      "inputs": [
        {
          "indexed": true,
          "internalType": "uint256",
          "name": "pid",
          "type": "uint256"
        },
        {
          "indexed": false,
          "internalType": "uint256",
          "name": "allocPoint",
          "type": "uint256"
        },
        {
          "indexed": true,
          "internalType": "contract IRewarder",
          "name": "rewarder",
          "type": "address"
        },
        {
          "indexed": false,
          "internalType": "bool",
          "name": "overwrite",
          "type": "bool"
        }
      ],
      "name": "LogSetPool",
      "type": "event"
    },
    {
      "anonymous": false,
      "inputs": [
        {
          "indexed": true,
          "internalType": "uint256",
          "name": "pid",
          "type": "uint256"
        },
        {
          "indexed": false,
          "internalType": "uint256",
          "name": "lastRewardBlock",
          "type": "uint256"
        },
        {
          "indexed": false,
          "internalType": "uint256",
          "name": "lpSupply",
          "type": "uint256"
        },
        {
          "indexed": false,
          "internalType": "uint256",
          "name": "accBeetsPerShare",
          "type": "uint256"
        }
      ],
      "name": "LogUpdatePool",
      "type": "event"
    },
    {
      "anonymous": false,
      "inputs": [
        {
          "indexed": true,
          "internalType": "address",
          "name": "previousOwner",
          "type": "address"
        },
        {
          "indexed": true,
          "internalType": "address",
          "name": "newOwner",
          "type": "address"
        }
      ],
      "name": "OwnershipTransferred",
      "type": "event"
    },
    {
      "anonymous": false,
      "inputs": [
        {
          "indexed": true,
          "internalType": "address",
          "name": "oldAddress",
          "type": "address"
        },
        {
          "indexed": true,
          "internalType": "address",
          "name": "newAddress",
          "type": "address"
        }
      ],
      "name": "SetTreasuryAddress",
      "type": "event"
    },
    {
      "anonymous": false,
      "inputs": [
        {
          "indexed": true,
          "internalType": "address",
          "name": "user",
          "type": "address"
        },
        {
          "indexed": false,
          "internalType": "uint256",
          "name": "_beetsPerSec",
          "type": "uint256"
        }
      ],
      "name": "UpdateEmissionRate",
      "type": "event"
    },
    {
      "anonymous": false,
      "inputs": [
        {
          "indexed": true,
          "internalType": "address",
          "name": "user",
          "type": "address"
        },
        {
          "indexed": true,
          "internalType": "uint256",
          "name": "pid",
          "type": "uint256"
        },
        {
          "indexed": false,
          "internalType": "uint256",
          "name": "amount",
          "type": "uint256"
        },
        {
          "indexed": true,
          "internalType": "address",
          "name": "to",
          "type": "address"
        }
      ],
      "name": "Withdraw",
      "type": "event"
    },
    {
      "inputs": [],
      "name": "POOL_PERCENTAGE",
      "outputs": [
        {
          "internalType": "uint256",
          "name": "",
          "type": "uint256"
        }
      ],
      "stateMutability": "view",
      "type": "function"
    },
    {
      "inputs": [],
      "name": "TREASURY_PERCENTAGE",
      "outputs": [
        {
          "internalType": "uint256",
          "name": "",
          "type": "uint256"
        }
      ],
      "stateMutability": "view",
      "type": "function"
    },
    {
      "inputs": [
        {
          "internalType": "uint256",
          "name": "_allocPoint",
          "type": "uint256"
        },
        {
          "internalType": "contract IERC20",
          "name": "_lpToken",
          "type": "address"
        },
        {
          "internalType": "contract IRewarder",
          "name": "_rewarder",
          "type": "address"
        }
      ],
      "name": "add",
      "outputs": [],
      "stateMutability": "nonpayable",
      "type": "function"
    },
    {
      "inputs": [],
      "name": "beets",
      "outputs": [
        {
          "internalType": "contract BeethovenxToken",
          "name": "",
          "type": "address"
        }
      ],
      "stateMutability": "view",
      "type": "function"
    },
    {
      "inputs": [],
      "name": "beetsPerBlock",
      "outputs": [
        {
          "internalType": "uint256",
          "name": "",
          "type": "uint256"
        }
      ],
      "stateMutability": "view",
      "type": "function"
    },
    {
      "inputs": [
        {
          "internalType": "uint256",
          "name": "_pid",
          "type": "uint256"
        },
        {
          "internalType": "uint256",
          "name": "_amount",
          "type": "uint256"
        },
        {
          "internalType": "address",
          "name": "_to",
          "type": "address"
        }
      ],
      "name": "deposit",
      "outputs": [],
      "stateMutability": "nonpayable",
      "type": "function"
    },
    {
      "inputs": [
        {
          "internalType": "uint256",
          "name": "_pid",
          "type": "uint256"
        },
        {
          "internalType": "address",
          "name": "_to",
          "type": "address"
        }
      ],
      "name": "emergencyWithdraw",
      "outputs": [],
      "stateMutability": "nonpayable",
      "type": "function"
    },
    {
      "inputs": [
        {
          "internalType": "uint256",
          "name": "_pid",
          "type": "uint256"
        },
        {
          "internalType": "address",
          "name": "_to",
          "type": "address"
        }
      ],
      "name": "harvest",
      "outputs": [],
      "stateMutability": "nonpayable",
      "type": "function"
    },
    {
      "inputs": [
        {
          "internalType": "uint256",
          "name": "",
          "type": "uint256"
        }
      ],
      "name": "lpTokens",
      "outputs": [
        {
          "internalType": "contract IERC20",
          "name": "",
          "type": "address"
        }
      ],
      "stateMutability": "view",
      "type": "function"
    },
    {
      "inputs": [],
      "name": "massUpdatePools",
      "outputs": [],
      "stateMutability": "nonpayable",
      "type": "function"
    },
    {
      "inputs": [],
      "name": "owner",
      "outputs": [
        {
          "internalType": "address",
          "name": "",
          "type": "address"
        }
      ],
      "stateMutability": "view",
      "type": "function"
    },
    {
      "inputs": [
        {
          "internalType": "uint256",
          "name": "_pid",
          "type": "uint256"
        },
        {
          "internalType": "address",
          "name": "_user",
          "type": "address"
        }
      ],
      "name": "pendingBeets",
      "outputs": [
        {
          "internalType": "uint256",
          "name": "pending",
          "type": "uint256"
        }
      ],
      "stateMutability": "view",
      "type": "function"
    },
    {
      "inputs": [
        {
          "internalType": "uint256",
          "name": "",
          "type": "uint256"
        }
      ],
      "name": "poolInfo",
      "outputs": [
        {
          "internalType": "uint256",
          "name": "allocPoint",
          "type": "uint256"
        },
        {
          "internalType": "uint256",
          "name": "lastRewardBlock",
          "type": "uint256"
        },
        {
          "internalType": "uint256",
          "name": "accBeetsPerShare",
          "type": "uint256"
        }
      ],
      "stateMutability": "view",
      "type": "function"
    },
    {
      "inputs": [],
      "name": "poolLength",
      "outputs": [
        {
          "internalType": "uint256",
          "name": "",
          "type": "uint256"
        }
      ],
      "stateMutability": "view",
      "type": "function"
    },
    {
      "inputs": [],
      "name": "renounceOwnership",
      "outputs": [],
      "stateMutability": "nonpayable",
      "type": "function"
    },
    {
      "inputs": [
        {
          "internalType": "uint256",
          "name": "",
          "type": "uint256"
        }
      ],
      "name": "rewarder",
      "outputs": [
        {
          "internalType": "contract IRewarder",
          "name": "",
          "type": "address"
        }
      ],
      "stateMutability": "view",
      "type": "function"
    },
    {
      "inputs": [
        {
          "internalType": "uint256",
          "name": "_pid",
          "type": "uint256"
        },
        {
          "internalType": "uint256",
          "name": "_allocPoint",
          "type": "uint256"
        },
        {
          "internalType": "contract IRewarder",
          "name": "_rewarder",
          "type": "address"
        },
        {
          "internalType": "bool",
          "name": "overwrite",
          "type": "bool"
        }
      ],
      "name": "set",
      "outputs": [],
      "stateMutability": "nonpayable",
      "type": "function"
    },
    {
      "inputs": [],
      "name": "startBlock",
      "outputs": [
        {
          "internalType": "uint256",
          "name": "",
          "type": "uint256"
        }
      ],
      "stateMutability": "view",
      "type": "function"
    },
    {
      "inputs": [],
      "name": "totalAllocPoint",
      "outputs": [
        {
          "internalType": "uint256",
          "name": "",
          "type": "uint256"
        }
      ],
      "stateMutability": "view",
      "type": "function"
    },
    {
      "inputs": [
        {
          "internalType": "address",
          "name": "newOwner",
          "type": "address"
        }
      ],
      "name": "transferOwnership",
      "outputs": [],
      "stateMutability": "nonpayable",
      "type": "function"
    },
    {
      "inputs": [
        {
          "internalType": "address",
          "name": "_treasuryAddress",
          "type": "address"
        }
      ],
      "name": "treasury",
      "outputs": [],
      "stateMutability": "nonpayable",
      "type": "function"
    },
    {
      "inputs": [],
      "name": "treasuryAddress",
      "outputs": [
        {
          "internalType": "address",
          "name": "",
          "type": "address"
        }
      ],
      "stateMutability": "view",
      "type": "function"
    },
    {
      "inputs": [
        {
          "internalType": "uint256",
          "name": "_beetsPerBlock",
          "type": "uint256"
        }
      ],
      "name": "updateEmissionRate",
      "outputs": [],
      "stateMutability": "nonpayable",
      "type": "function"
    },
    {
      "inputs": [
        {
          "internalType": "uint256",
          "name": "_pid",
          "type": "uint256"
        }
      ],
      "name": "updatePool",
      "outputs": [
        {
          "components": [
            {
              "internalType": "uint256",
              "name": "allocPoint",
              "type": "uint256"
            },
            {
              "internalType": "uint256",
              "name": "lastRewardBlock",
              "type": "uint256"
            },
            {
              "internalType": "uint256",
              "name": "accBeetsPerShare",
              "type": "uint256"
            }
          ],
          "internalType": "struct BeethovenxMasterChef.PoolInfo",
          "name": "pool",
          "type": "tuple"
        }
      ],
      "stateMutability": "nonpayable",
      "type": "function"
    },
    {
      "inputs": [
        {
          "internalType": "uint256",
          "name": "",
          "type": "uint256"
        },
        {
          "internalType": "address",
          "name": "",
          "type": "address"
        }
      ],
      "name": "userInfo",
      "outputs": [
        {
          "internalType": "uint256",
          "name": "amount",
          "type": "uint256"
        },
        {
          "internalType": "uint256",
          "name": "rewardDebt",
          "type": "uint256"
        }
      ],
      "stateMutability": "view",
      "type": "function"
    },
    {
      "inputs": [
        {
          "internalType": "uint256",
          "name": "_pid",
          "type": "uint256"
        },
        {
          "internalType": "uint256",
          "name": "_amount",
          "type": "uint256"
        },
        {
          "internalType": "address",
          "name": "_to",
          "type": "address"
        }
      ],
      "name": "withdrawAndHarvest",
      "outputs": [],
      "stateMutability": "nonpayable",
      "type": "function"
    }
  ],
  "transactionHash": "0x2606171df3e4d9d9849d846dc03077021576c93881e754370a7970f4552f8b90",
  "args": [
    "0x3E3a61eC8F9D2E677bfc6f8F044B70e3C153eBED",
    "0x500F8fe004E978D1c58dba852BfE7bBa8Ae434c1",
    "5050000000000000000",
    "9387260"
  ],
  "solcInputHash": "e50beabc3450ba6330d3349581129fb9",
  "bytecode": "0x60806040526000600a553480156200001657600080fd5b506040516200213a3803806200213a833981016040819052620000399162000156565b620000443362000106565b6753444835ec580000821115620000c75760405162461bcd60e51b815260206004820152603360248201527f6d6178696d756d20656d697373696f6e2072617465206f66203620626565747360448201527f2070657220626c6f636b20657863656564656400000000000000000000000000606482015260840160405180910390fd5b600180546001600160a01b039586166001600160a01b0319918216179091556002805494909516931692909217909255600391909155600b55620001bc565b600080546001600160a01b038381166001600160a01b0319831681178455604051919092169283917f8be0079c531659141344cd1fd0a4f28419497f9722a3daafe3b4186f6b6457e09190a35050565b600080600080608085870312156200016d57600080fd5b84516200017a81620001a3565b60208601519094506200018d81620001a3565b6040860151606090960151949790965092505050565b6001600160a01b0381168114620001b957600080fd5b50565b611f6e80620001cc6000396000f3fe608060405234801561001057600080fd5b506004361061018e5760003560e01c8063630b5ba1116100de5780638dbdbe6d11610097578063c346253d11610071578063c346253d14610379578063c5f956af1461038c578063d1abb9071461039f578063f2fde38b146103b257600080fd5b80638dbdbe6d1461030c57806393f1a40b1461031f578063ab7de0981461036657600080fd5b8063630b5ba1146102bc5780636a44e1f3146102c4578063715018a6146102cd5780638519359d146102d557806388bba42f146102e85780638da5cb5b146102fb57600080fd5b80631bb5e2dc1161014b5780632f940c70116101255780632f940c701461026257806339e5f4ff1461027557806348cd4cb11461027e57806351eb05a61461028757600080fd5b80631bb5e2dc14610211578063269db9001461023c5780632d809cb61461024f57600080fd5b8063081e3eda146101935780630ba84cd2146101aa5780631526fe27146101bf578063173b31d8146101ed57806317caf6f1146101f557806318fccc76146101fe575b600080fd5b6004545b6040519081526020015b60405180910390f35b6101bd6101b8366004611c63565b6103c5565b005b6101d26101cd366004611c63565b6104b1565b604080519384526020840192909252908201526060016101a1565b610197608081565b610197600a5481565b6101bd61020c366004611c95565b6104e4565b61022461021f366004611c63565b610635565b6040516001600160a01b0390911681526020016101a1565b61019761024a366004611c95565b61065f565b6101bd61025d366004611c29565b610822565b6101bd610270366004611c95565b6108d8565b61019761036881565b610197600b5481565b61029a610295366004611c63565b610a23565b60408051825181526020808401519082015291810151908201526060016101a1565b6101bd610d52565b61019760035481565b6101bd610d7e565b600154610224906001600160a01b031681565b6101bd6102f6366004611d35565b610db4565b6000546001600160a01b0316610224565b6101bd61031a366004611d07565b610f90565b61035161032d366004611c95565b60096020908152600092835260408084209091529082529020805460019091015482565b604080519283526020830191909152016101a1565b6101bd610374366004611cc5565b61112e565b610224610387366004611c63565b611431565b600254610224906001600160a01b031681565b6101bd6103ad366004611d07565b611441565b6101bd6103c0366004611c29565b61168b565b6000546001600160a01b031633146103f85760405162461bcd60e51b81526004016103ef90611dce565b60405180910390fd5b6753444835ec58000081111561046c5760405162461bcd60e51b815260206004820152603360248201527f6d6178696d756d20656d697373696f6e2072617465206f662036206265657473604482015272081c195c88189b1bd8dac8195e18d959591959606a1b60648201526084016103ef565b610474610d52565b600381905560405181815233907fe2492e003bbe8afa53088b406f0c1cb5d9e280370fc72a74cf116ffd343c40539060200160405180910390a250565b600481815481106104c157600080fd5b600091825260209091206003909102018054600182015460029092015490925083565b60006104ef83610a23565b6000848152600960209081526040808320338452909152808220908301518154939450909264e8d4a510009161052491611e6c565b61052e9190611e4a565b905060008260010154826105429190611e8b565b600184018390559050801561055b5761055b8582611726565b60006008878154811061057057610570611eff565b6000918252602090912001546001600160a01b0316905080156105f557835460405163494dffe160e11b81526001600160a01b0383169163929bffc2916105c2918b9133918c91899190600401611e03565b600060405180830381600087803b1580156105dc57600080fd5b505af11580156105f0573d6000803e3d6000fd5b505050505b604051828152879033907f71bab65ced2e5750775a0613be067df48ef06cf92a496ebf7663ae06609249549060200160405180910390a350505050505050565b6005818154811061064557600080fd5b6000918252602090912001546001600160a01b0316905081565b6000806004848154811061067557610675611eff565b600091825260208083208784526009825260408085206001600160a01b038916865290925290832060039290920201600281015460058054929550929390929091889081106106c6576106c6611eff565b6000918252602090912001546040516370a0823160e01b81523060048201526001600160a01b03909116906370a082319060240160206040518083038186803b15801561071257600080fd5b505afa158015610726573d6000803e3d6000fd5b505050506040513d601f19601f8201168201806040525081019061074a9190611c7c565b905083600101544311801561075e57508015155b156107ea5760008460010154436107759190611e8b565b600a54865460035492935060009261078d9085611e6c565b6107979190611e6c565b6107a19190611e4a565b905060006103e86107b461036884611e6c565b6107be9190611e4a565b9050836107d064e8d4a5100083611e6c565b6107da9190611e4a565b6107e49086611e32565b94505050505b6001830154835464e8d4a5100090610803908590611e6c565b61080d9190611e4a565b6108179190611e8b565b979650505050505050565b6002546001600160a01b0316331461088c5760405162461bcd60e51b815260206004820152602760248201527f6163636573732064656e6965643a2073657474696e67207472656173757279206044820152666164647265737360c81b60648201526084016103ef565b600280546001600160a01b0319166001600160a01b03831690811790915560405181907f61885cdba916be748ff3e3f6f15e4206153b8ea3b7acabade9d04b4063a8351090600090a350565b6000828152600960209081526040808320338452909152812080548282556001820183905560088054929391928690811061091557610915611eff565b6000918252602090912001546001600160a01b03169050801561099a5760405163494dffe160e11b81526001600160a01b0382169063929bffc290610967908890339089906000908190600401611e03565b600060405180830381600087803b15801561098157600080fd5b505af1158015610995573d6000803e3d6000fd5b505050505b6109ce8483600588815481106109b2576109b2611eff565b6000918252602090912001546001600160a01b03169190611877565b836001600160a01b031685336001600160a01b03167f2cac5e20e1541d836381527a43f651851e302817b71dc8e810284e69210c1c6b85604051610a1491815260200190565b60405180910390a45050505050565b610a4760405180606001604052806000815260200160008152602001600081525090565b60048281548110610a5a57610a5a611eff565b600091825260209182902060408051606081018252600390930290910180548352600181015493830184905260020154908201529150431115610d4d57600060058381548110610aac57610aac611eff565b6000918252602090912001546040516370a0823160e01b81523060048201526001600160a01b03909116906370a082319060240160206040518083038186803b158015610af857600080fd5b505afa158015610b0c573d6000803e3d6000fd5b505050506040513d601f19601f82011682018060405250810190610b309190611c7c565b90508015610cbd576000826020015143610b4a9190611e8b565b600a548451600354929350600092610b629085611e6c565b610b6c9190611e6c565b610b769190611e4a565b905060006103e8610b8961036884611e6c565b610b939190611e4a565b6001546002549192506001600160a01b03908116916340c10f1991166103e8610bbd608087611e6c565b610bc79190611e4a565b6040516001600160e01b031960e085901b1681526001600160a01b0390921660048301526024820152604401600060405180830381600087803b158015610c0d57600080fd5b505af1158015610c21573d6000803e3d6000fd5b50506001546040516340c10f1960e01b8152306004820152602481018590526001600160a01b0390911692506340c10f199150604401600060405180830381600087803b158015610c7157600080fd5b505af1158015610c85573d6000803e3d6000fd5b505050508364e8d4a5100082610c9b9190611e6c565b610ca59190611e4a565b8560400151610cb49190611e32565b60408601525050505b4360208301526004805483919085908110610cda57610cda611eff565b60009182526020918290208351600390920201908155828201516001820155604092830151600290910155838101518483015183519182529181018490529182015283907fcb7325664a4a3b7c7223eefc492a97ca4fdf94d46884621e5a8fae5a04b2b9d29060600160405180910390a2505b919050565b60045460005b81811015610d7a57610d6981610a23565b50610d7381611ece565b9050610d58565b5050565b6000546001600160a01b03163314610da85760405162461bcd60e51b81526004016103ef90611dce565b610db260006118da565b565b6000546001600160a01b03163314610dde5760405162461bcd60e51b81526004016103ef90611dce565b813b151580610df457506001600160a01b038216155b610e4f5760405162461bcd60e51b815260206004820152602660248201527f7365743a207265776172646572206d75737420626520636f6e7472616374206f60448201526572207a65726f60d01b60648201526084016103ef565b610e57610d52565b8260048581548110610e6b57610e6b611eff565b906000526020600020906003020160000154600a54610e8a9190611e8b565b610e949190611e32565b600a819055508260048581548110610eae57610eae611eff565b60009182526020909120600390910201558015610f08578160088581548110610ed957610ed9611eff565b9060005260206000200160006101000a8154816001600160a01b0302191690836001600160a01b031602179055505b80610f3a5760088481548110610f2057610f20611eff565b6000918252602090912001546001600160a01b0316610f3c565b815b6001600160a01b0316847f95895a6ab1df54420d241b55243258a33e61b2194db66c1179ec521aae8e18658584604051610f829291909182521515602082015260400190565b60405180910390a350505050565b6000610f9b84610a23565b60008581526009602090815260408083206001600160a01b03871684529091529020805491925090610fce908590611e32565b8155604082015164e8d4a5100090610fe69086611e6c565b610ff09190611e4a565b8160010154610fff9190611e32565b816001018190555060006008868154811061101c5761101c611eff565b6000918252602090912001546001600160a01b0316905080156110a257815460405163494dffe160e11b81526001600160a01b0383169163929bffc29161106f918a918991829160009190600401611e03565b600060405180830381600087803b15801561108957600080fd5b505af115801561109d573d6000803e3d6000fd5b505050505b6110d833308760058a815481106110bb576110bb611eff565b6000918252602090912001546001600160a01b031692919061192a565b836001600160a01b031686336001600160a01b03167f02d7e648dd130fc184d383e55bb126ac4c9c60e8f94bf05acdf557ba2d540b478860405161111e91815260200190565b60405180910390a4505050505050565b6000546001600160a01b031633146111585760405162461bcd60e51b81526004016103ef90611dce565b813b6111b55760405162461bcd60e51b815260206004820152602660248201527f6164643a204c5020746f6b656e206d75737420626520612076616c696420636f6044820152651b9d1c9858dd60d21b60648201526084016103ef565b803b1515806111cb57506001600160a01b038116155b6112265760405162461bcd60e51b815260206004820152602660248201527f6164643a207265776172646572206d75737420626520636f6e7472616374206f60448201526572207a65726f60d01b60648201526084016103ef565b611231600683611962565b156112765760405162461bcd60e51b81526020600482015260156024820152741859190e88131408185b1c9958591e481859191959605a1b60448201526064016103ef565b61127e610d52565b6000600b54431161129157600b54611293565b435b905083600a546112a39190611e32565b600a55600580546001810182556000919091527f036b6384b5eca791c62761152d0c79bb0604c104a5fb6f4eb0703f3154bb3db00180546001600160a01b0319166001600160a01b0385161790556112fc600684611989565b506008805460018082019092557ff3f7a9fe364faab93b216da50a3214154f22a0a2b415b23a84c8169e8b636ee30180546001600160a01b0319166001600160a01b0385811691821790925560408051606081018252888152602081018681526000928201838152600480548089018255945291517f8a35acfbc15ff81a39ae7d344fd709f28e8600b4aa8c65c6b64bfe7fe36bd19b600390940293840155517f8a35acfbc15ff81a39ae7d344fd709f28e8600b4aa8c65c6b64bfe7fe36bd19c830155517f8a35acfbc15ff81a39ae7d344fd709f28e8600b4aa8c65c6b64bfe7fe36bd19d909101556005549092918616916113f891611e8b565b6040518781527f81ee0f8c5c46e2cb41984886f77a84181724abb86c32a5f6de539b07509d45e59060200160405180910390a450505050565b6008818154811061064557600080fd5b600061144c84610a23565b600085815260096020908152604080832033845290915290208054919250908411156114c65760405162461bcd60e51b815260206004820152602360248201527f63616e6e6f74207769746864726177206d6f7265207468616e206465706f73696044820152621d195960ea1b60648201526084016103ef565b600064e8d4a51000836040015183600001546114e29190611e6c565b6114ec9190611e4a565b905060008260010154826115009190611e8b565b905064e8d4a510008460400151876115189190611e6c565b6115229190611e4a565b61152c9083611e8b565b6001840155825461153e908790611e8b565b835561154a8582611726565b60006008888154811061155f5761155f611eff565b6000918252602090912001546001600160a01b0316905080156115e457835460405163494dffe160e11b81526001600160a01b0383169163929bffc2916115b1918c9133918c91899190600401611e03565b600060405180830381600087803b1580156115cb57600080fd5b505af11580156115df573d6000803e3d6000fd5b505050505b6115fc868860058b815481106109b2576109b2611eff565b856001600160a01b031688336001600160a01b03167f8166bf25f8a2b7ed3c85049207da4358d16edbed977d23fa2ee6f0dde3ec21328a60405161164291815260200190565b60405180910390a4604051828152889033907f71bab65ced2e5750775a0613be067df48ef06cf92a496ebf7663ae06609249549060200160405180910390a35050505050505050565b6000546001600160a01b031633146116b55760405162461bcd60e51b81526004016103ef90611dce565b6001600160a01b03811661171a5760405162461bcd60e51b815260206004820152602660248201527f4f776e61626c653a206e6577206f776e657220697320746865207a65726f206160448201526564647265737360d01b60648201526084016103ef565b611723816118da565b50565b6001546040516370a0823160e01b81523060048201526000916001600160a01b0316906370a082319060240160206040518083038186803b15801561176a57600080fd5b505afa15801561177e573d6000803e3d6000fd5b505050506040513d601f19601f820116820180604052508101906117a29190611c7c565b9050808211156118395760015460405163a9059cbb60e01b81526001600160a01b038581166004830152602482018490529091169063a9059cbb906044015b602060405180830381600087803b1580156117fb57600080fd5b505af115801561180f573d6000803e3d6000fd5b505050506040513d601f19601f820116820180604052508101906118339190611c46565b50505050565b60015460405163a9059cbb60e01b81526001600160a01b038581166004830152602482018590529091169063a9059cbb906044016117e1565b505050565b6040516001600160a01b03831660248201526044810182905261187290849063a9059cbb60e01b906064015b60408051601f198184030181529190526020810180516001600160e01b03166001600160e01b03199093169290921790915261199e565b600080546001600160a01b038381166001600160a01b0319831681178455604051919092169283917f8be0079c531659141344cd1fd0a4f28419497f9722a3daafe3b4186f6b6457e09190a35050565b6040516001600160a01b03808516602483015283166044820152606481018290526118339085906323b872dd60e01b906084016118a3565b6001600160a01b038116600090815260018301602052604081205415155b90505b92915050565b6000611980836001600160a01b038416611a70565b60006119f3826040518060400160405280602081526020017f5361666545524332303a206c6f772d6c6576656c2063616c6c206661696c6564815250856001600160a01b0316611abf9092919063ffffffff16565b8051909150156118725780806020019051810190611a119190611c46565b6118725760405162461bcd60e51b815260206004820152602a60248201527f5361666545524332303a204552433230206f7065726174696f6e20646964206e6044820152691bdd081cdd58d8d9595960b21b60648201526084016103ef565b6000818152600183016020526040812054611ab757508154600181810184556000848152602080822090930184905584548482528286019093526040902091909155611983565b506000611983565b6060611ace8484600085611ad8565b90505b9392505050565b606082471015611b395760405162461bcd60e51b815260206004820152602660248201527f416464726573733a20696e73756666696369656e742062616c616e636520666f6044820152651c8818d85b1b60d21b60648201526084016103ef565b843b611b875760405162461bcd60e51b815260206004820152601d60248201527f416464726573733a2063616c6c20746f206e6f6e2d636f6e747261637400000060448201526064016103ef565b600080866001600160a01b03168587604051611ba39190611d7f565b60006040518083038185875af1925050503d8060008114611be0576040519150601f19603f3d011682016040523d82523d6000602084013e611be5565b606091505b509150915061081782828660608315611bff575081611ad1565b825115611c0f5782518084602001fd5b8160405162461bcd60e51b81526004016103ef9190611d9b565b600060208284031215611c3b57600080fd5b8135611ad181611f15565b600060208284031215611c5857600080fd5b8151611ad181611f2a565b600060208284031215611c7557600080fd5b5035919050565b600060208284031215611c8e57600080fd5b5051919050565b60008060408385031215611ca857600080fd5b823591506020830135611cba81611f15565b809150509250929050565b600080600060608486031215611cda57600080fd5b833592506020840135611cec81611f15565b91506040840135611cfc81611f15565b809150509250925092565b600080600060608486031215611d1c57600080fd5b83359250602084013591506040840135611cfc81611f15565b60008060008060808587031215611d4b57600080fd5b84359350602085013592506040850135611d6481611f15565b91506060850135611d7481611f2a565b939692955090935050565b60008251611d91818460208701611ea2565b9190910192915050565b6020815260008251806020840152611dba816040850160208701611ea2565b601f01601f19169190910160400192915050565b6020808252818101527f4f776e61626c653a2063616c6c6572206973206e6f7420746865206f776e6572604082015260600190565b9485526001600160a01b0393841660208601529190921660408401526060830191909152608082015260a00190565b60008219821115611e4557611e45611ee9565b500190565b600082611e6757634e487b7160e01b600052601260045260246000fd5b500490565b6000816000190483118215151615611e8657611e86611ee9565b500290565b600082821015611e9d57611e9d611ee9565b500390565b60005b83811015611ebd578181015183820152602001611ea5565b838111156118335750506000910152565b6000600019821415611ee257611ee2611ee9565b5060010190565b634e487b7160e01b600052601160045260246000fd5b634e487b7160e01b600052603260045260246000fd5b6001600160a01b038116811461172357600080fd5b801515811461172357600080fdfea26469706673582212202ec60092b254529117bc35910d58a2538466230c34e005c218af0a5fb759e7ec64736f6c63430008070033",
  "devdoc": {
    "kind": "dev",
    "methods": {
      "harvest(uint256,address)": {
        "params": {
          "_pid": "The index of the pool. See `poolInfo`.",
          "_to": "Receiver of BEETS rewards."
        }
      },
      "owner()": {
        "details": "Returns the address of the current owner."
      },
      "renounceOwnership()": {
        "details": "Leaves the contract without owner. It will not be possible to call `onlyOwner` functions anymore. Can only be called by the current owner. NOTE: Renouncing ownership will leave the contract without an owner, thereby removing any functionality that is only available to the owner."
      },
      "set(uint256,uint256,address,bool)": {
        "params": {
          "_allocPoint": "New AP of the pool.",
          "_pid": "The index of the pool. See `poolInfo`.",
          "_rewarder": "Address of the rewarder delegate.",
          "overwrite": "True if _rewarder should be `set`. Otherwise `_rewarder` is ignored."
        }
      },
      "transferOwnership(address)": {
        "details": "Transfers ownership of the contract to a new account (`newOwner`). Can only be called by the current owner."
      },
      "withdrawAndHarvest(uint256,uint256,address)": {
        "params": {
          "_amount": "LP token amount to withdraw.",
          "_pid": "The index of the pool. See `poolInfo`.",
          "_to": "Receiver of the LP tokens and BEETS rewards."
        }
      }
    },
    "version": 1
  },
  "userdoc": {
    "kind": "user",
    "methods": {
      "harvest(uint256,address)": {
        "notice": "Harvest proceeds for transaction sender to `_to`."
      },
      "lpTokens(uint256)": {
        "notice": "Address of the LP token for each MCV pool."
      },
      "rewarder(uint256)": {
        "notice": "Address of each `IRewarder` contract in MCV."
      },
      "withdrawAndHarvest(uint256,uint256,address)": {
        "notice": "Withdraw LP tokens from MCV and harvest proceeds for transaction sender to `_to`."
      }
    },
    "version": 1
  },
  "storageLayout": {
    "storage": [
      {
        "astId": 1784,
        "contract": "contracts/BeethovenxMasterChef.sol:BeethovenxMasterChef",
        "label": "_owner",
        "offset": 0,
        "slot": "0",
        "type": "t_address"
      },
      {
        "astId": 1974,
        "contract": "contracts/BeethovenxMasterChef.sol:BeethovenxMasterChef",
        "label": "beets",
        "offset": 0,
        "slot": "1",
        "type": "t_contract(BeethovenxToken)1917"
      },
      {
        "astId": 1976,
        "contract": "contracts/BeethovenxMasterChef.sol:BeethovenxMasterChef",
        "label": "treasuryAddress",
        "offset": 0,
        "slot": "2",
        "type": "t_address"
      },
      {
        "astId": 1978,
        "contract": "contracts/BeethovenxMasterChef.sol:BeethovenxMasterChef",
        "label": "beetsPerBlock",
        "offset": 0,
        "slot": "3",
        "type": "t_uint256"
      },
      {
        "astId": 1991,
        "contract": "contracts/BeethovenxMasterChef.sol:BeethovenxMasterChef",
        "label": "poolInfo",
        "offset": 0,
        "slot": "4",
        "type": "t_array(t_struct(PoolInfo)1971_storage)dyn_storage"
      },
      {
        "astId": 1996,
        "contract": "contracts/BeethovenxMasterChef.sol:BeethovenxMasterChef",
        "label": "lpTokens",
        "offset": 0,
        "slot": "5",
        "type": "t_array(t_contract(IERC20)77)dyn_storage"
      },
      {
        "astId": 1999,
        "contract": "contracts/BeethovenxMasterChef.sol:BeethovenxMasterChef",
        "label": "lpTokenAddresses",
        "offset": 0,
        "slot": "6",
        "type": "t_struct(AddressSet)905_storage"
      },
      {
        "astId": 2004,
        "contract": "contracts/BeethovenxMasterChef.sol:BeethovenxMasterChef",
        "label": "rewarder",
        "offset": 0,
        "slot": "8",
        "type": "t_array(t_contract(IRewarder)1948)dyn_storage"
      },
      {
        "astId": 2011,
        "contract": "contracts/BeethovenxMasterChef.sol:BeethovenxMasterChef",
        "label": "userInfo",
        "offset": 0,
        "slot": "9",
        "type": "t_mapping(t_uint256,t_mapping(t_address,t_struct(UserInfo)1964_storage))"
      },
      {
        "astId": 2014,
        "contract": "contracts/BeethovenxMasterChef.sol:BeethovenxMasterChef",
        "label": "totalAllocPoint",
        "offset": 0,
        "slot": "10",
        "type": "t_uint256"
      },
      {
        "astId": 2016,
        "contract": "contracts/BeethovenxMasterChef.sol:BeethovenxMasterChef",
        "label": "startBlock",
        "offset": 0,
        "slot": "11",
        "type": "t_uint256"
      }
    ],
    "types": {
      "t_address": {
        "encoding": "inplace",
        "label": "address",
        "numberOfBytes": "20"
      },
      "t_array(t_bytes32)dyn_storage": {
        "base": "t_bytes32",
        "encoding": "dynamic_array",
        "label": "bytes32[]",
        "numberOfBytes": "32"
      },
      "t_array(t_contract(IERC20)77)dyn_storage": {
        "base": "t_contract(IERC20)77",
        "encoding": "dynamic_array",
        "label": "contract IERC20[]",
        "numberOfBytes": "32"
      },
      "t_array(t_contract(IRewarder)1948)dyn_storage": {
        "base": "t_contract(IRewarder)1948",
        "encoding": "dynamic_array",
        "label": "contract IRewarder[]",
        "numberOfBytes": "32"
      },
      "t_array(t_struct(PoolInfo)1971_storage)dyn_storage": {
        "base": "t_struct(PoolInfo)1971_storage",
        "encoding": "dynamic_array",
        "label": "struct BeethovenxMasterChef.PoolInfo[]",
        "numberOfBytes": "32"
      },
      "t_bytes32": {
        "encoding": "inplace",
        "label": "bytes32",
        "numberOfBytes": "32"
      },
      "t_contract(BeethovenxToken)1917": {
        "encoding": "inplace",
        "label": "contract BeethovenxToken",
        "numberOfBytes": "20"
      },
      "t_contract(IERC20)77": {
        "encoding": "inplace",
        "label": "contract IERC20",
        "numberOfBytes": "20"
      },
      "t_contract(IRewarder)1948": {
        "encoding": "inplace",
        "label": "contract IRewarder",
        "numberOfBytes": "20"
      },
      "t_mapping(t_address,t_struct(UserInfo)1964_storage)": {
        "encoding": "mapping",
        "key": "t_address",
        "label": "mapping(address => struct BeethovenxMasterChef.UserInfo)",
        "numberOfBytes": "32",
        "value": "t_struct(UserInfo)1964_storage"
      },
      "t_mapping(t_bytes32,t_uint256)": {
        "encoding": "mapping",
        "key": "t_bytes32",
        "label": "mapping(bytes32 => uint256)",
        "numberOfBytes": "32",
        "value": "t_uint256"
      },
      "t_mapping(t_uint256,t_mapping(t_address,t_struct(UserInfo)1964_storage))": {
        "encoding": "mapping",
        "key": "t_uint256",
        "label": "mapping(uint256 => mapping(address => struct BeethovenxMasterChef.UserInfo))",
        "numberOfBytes": "32",
        "value": "t_mapping(t_address,t_struct(UserInfo)1964_storage)"
      },
      "t_struct(AddressSet)905_storage": {
        "encoding": "inplace",
        "label": "struct EnumerableSet.AddressSet",
        "members": [
          {
            "astId": 904,
            "contract": "contracts/BeethovenxMasterChef.sol:BeethovenxMasterChef",
            "label": "_inner",
            "offset": 0,
            "slot": "0",
            "type": "t_struct(Set)604_storage"
          }
        ],
        "numberOfBytes": "64"
      },
      "t_struct(PoolInfo)1971_storage": {
        "encoding": "inplace",
        "label": "struct BeethovenxMasterChef.PoolInfo",
        "members": [
          {
            "astId": 1966,
            "contract": "contracts/BeethovenxMasterChef.sol:BeethovenxMasterChef",
            "label": "allocPoint",
            "offset": 0,
            "slot": "0",
            "type": "t_uint256"
          },
          {
            "astId": 1968,
            "contract": "contracts/BeethovenxMasterChef.sol:BeethovenxMasterChef",
            "label": "lastRewardBlock",
            "offset": 0,
            "slot": "1",
            "type": "t_uint256"
          },
          {
            "astId": 1970,
            "contract": "contracts/BeethovenxMasterChef.sol:BeethovenxMasterChef",
            "label": "accBeetsPerShare",
            "offset": 0,
            "slot": "2",
            "type": "t_uint256"
          }
        ],
        "numberOfBytes": "96"
      },
      "t_struct(Set)604_storage": {
        "encoding": "inplace",
        "label": "struct EnumerableSet.Set",
        "members": [
          {
            "astId": 599,
            "contract": "contracts/BeethovenxMasterChef.sol:BeethovenxMasterChef",
            "label": "_values",
            "offset": 0,
            "slot": "0",
            "type": "t_array(t_bytes32)dyn_storage"
          },
          {
            "astId": 603,
            "contract": "contracts/BeethovenxMasterChef.sol:BeethovenxMasterChef",
            "label": "_indexes",
            "offset": 0,
            "slot": "1",
            "type": "t_mapping(t_bytes32,t_uint256)"
          }
        ],
        "numberOfBytes": "64"
      },
      "t_struct(UserInfo)1964_storage": {
        "encoding": "inplace",
        "label": "struct BeethovenxMasterChef.UserInfo",
        "members": [
          {
            "astId": 1961,
            "contract": "contracts/BeethovenxMasterChef.sol:BeethovenxMasterChef",
            "label": "amount",
            "offset": 0,
            "slot": "0",
            "type": "t_uint256"
          },
          {
            "astId": 1963,
            "contract": "contracts/BeethovenxMasterChef.sol:BeethovenxMasterChef",
            "label": "rewardDebt",
            "offset": 0,
            "slot": "1",
            "type": "t_uint256"
          }
        ],
        "numberOfBytes": "64"
      },
      "t_uint256": {
        "encoding": "inplace",
        "label": "uint256",
        "numberOfBytes": "32"
      }
    }
  }
}